{
  "_format": "hh-sol-artifact-1",
  "contractName": "Base",
  "sourceName": "contracts/MyNFT.sol",
  "abi": [
    {
      "inputs": [],
      "stateMutability": "nonpayable",
      "type": "constructor"
    },
    {
      "anonymous": false,
      "inputs": [
        {
          "indexed": true,
          "internalType": "address",
          "name": "owner",
          "type": "address"
        },
        {
          "indexed": true,
          "internalType": "address",
          "name": "approved",
          "type": "address"
        },
        {
          "indexed": true,
          "internalType": "uint256",
          "name": "tokenId",
          "type": "uint256"
        }
      ],
      "name": "Approval",
      "type": "event"
    },
    {
      "anonymous": false,
      "inputs": [
        {
          "indexed": true,
          "internalType": "address",
          "name": "owner",
          "type": "address"
        },
        {
          "indexed": true,
          "internalType": "address",
          "name": "operator",
          "type": "address"
        },
        {
          "indexed": false,
          "internalType": "bool",
          "name": "approved",
          "type": "bool"
        }
      ],
      "name": "ApprovalForAll",
      "type": "event"
    },
    {
      "anonymous": false,
      "inputs": [
        {
          "indexed": true,
          "internalType": "address",
          "name": "previousOwner",
          "type": "address"
        },
        {
          "indexed": true,
          "internalType": "address",
          "name": "newOwner",
          "type": "address"
        }
      ],
      "name": "OwnershipTransferred",
      "type": "event"
    },
    {
      "anonymous": false,
      "inputs": [
        {
          "indexed": true,
          "internalType": "address",
          "name": "from",
          "type": "address"
        },
        {
          "indexed": true,
          "internalType": "address",
          "name": "to",
          "type": "address"
        },
        {
          "indexed": true,
          "internalType": "uint256",
          "name": "tokenId",
          "type": "uint256"
        }
      ],
      "name": "Transfer",
      "type": "event"
    },
    {
      "inputs": [
        {
          "internalType": "address",
          "name": "to",
          "type": "address"
        },
        {
          "internalType": "uint256",
          "name": "tokenId",
          "type": "uint256"
        }
      ],
      "name": "approve",
      "outputs": [],
      "stateMutability": "nonpayable",
      "type": "function"
    },
    {
      "inputs": [
        {
          "internalType": "address",
          "name": "owner",
          "type": "address"
        }
      ],
      "name": "balanceOf",
      "outputs": [
        {
          "internalType": "uint256",
          "name": "",
          "type": "uint256"
        }
      ],
      "stateMutability": "view",
      "type": "function"
    },
    {
      "inputs": [
        {
          "internalType": "uint256",
          "name": "tokenId",
          "type": "uint256"
        }
      ],
      "name": "getApproved",
      "outputs": [
        {
          "internalType": "address",
          "name": "",
          "type": "address"
        }
      ],
      "stateMutability": "view",
      "type": "function"
    },
    {
      "inputs": [
        {
          "internalType": "uint16",
          "name": "new_supply",
          "type": "uint16"
        }
      ],
      "name": "increase_supply",
      "outputs": [],
      "stateMutability": "nonpayable",
      "type": "function"
    },
    {
      "inputs": [
        {
          "internalType": "address",
          "name": "owner",
          "type": "address"
        },
        {
          "internalType": "address",
          "name": "operator",
          "type": "address"
        }
      ],
      "name": "isApprovedForAll",
      "outputs": [
        {
          "internalType": "bool",
          "name": "",
          "type": "bool"
        }
      ],
      "stateMutability": "view",
      "type": "function"
    },
    {
      "inputs": [],
      "name": "name",
      "outputs": [
        {
          "internalType": "string",
          "name": "",
          "type": "string"
        }
      ],
      "stateMutability": "view",
      "type": "function"
    },
    {
      "inputs": [],
      "name": "owner",
      "outputs": [
        {
          "internalType": "address",
          "name": "",
          "type": "address"
        }
      ],
      "stateMutability": "view",
      "type": "function"
    },
    {
      "inputs": [
        {
          "internalType": "uint256",
          "name": "tokenId",
          "type": "uint256"
        }
      ],
      "name": "ownerOf",
      "outputs": [
        {
          "internalType": "address",
          "name": "",
          "type": "address"
        }
      ],
      "stateMutability": "view",
      "type": "function"
    },
    {
      "inputs": [],
      "name": "renounceOwnership",
      "outputs": [],
      "stateMutability": "nonpayable",
      "type": "function"
    },
    {
      "inputs": [
        {
          "internalType": "address",
          "name": "from",
          "type": "address"
        },
        {
          "internalType": "address",
          "name": "to",
          "type": "address"
        },
        {
          "internalType": "uint256",
          "name": "tokenId",
          "type": "uint256"
        }
      ],
      "name": "safeTransferFrom",
      "outputs": [],
      "stateMutability": "nonpayable",
      "type": "function"
    },
    {
      "inputs": [
        {
          "internalType": "address",
          "name": "from",
          "type": "address"
        },
        {
          "internalType": "address",
          "name": "to",
          "type": "address"
        },
        {
          "internalType": "uint256",
          "name": "tokenId",
          "type": "uint256"
        },
        {
          "internalType": "bytes",
          "name": "_data",
          "type": "bytes"
        }
      ],
      "name": "safeTransferFrom",
      "outputs": [],
      "stateMutability": "nonpayable",
      "type": "function"
    },
    {
      "inputs": [
        {
          "internalType": "address",
          "name": "operator",
          "type": "address"
        },
        {
          "internalType": "bool",
          "name": "approved",
          "type": "bool"
        }
      ],
      "name": "setApprovalForAll",
      "outputs": [],
      "stateMutability": "nonpayable",
      "type": "function"
    },
    {
      "inputs": [
        {
          "internalType": "bytes4",
          "name": "interfaceId",
          "type": "bytes4"
        }
      ],
      "name": "supportsInterface",
      "outputs": [
        {
          "internalType": "bool",
          "name": "",
          "type": "bool"
        }
      ],
      "stateMutability": "view",
      "type": "function"
    },
    {
      "inputs": [],
      "name": "symbol",
      "outputs": [
        {
          "internalType": "string",
          "name": "",
          "type": "string"
        }
      ],
      "stateMutability": "view",
      "type": "function"
    },
    {
      "inputs": [
        {
          "internalType": "uint256",
          "name": "index",
          "type": "uint256"
        }
      ],
      "name": "tokenByIndex",
      "outputs": [
        {
          "internalType": "uint256",
          "name": "",
          "type": "uint256"
        }
      ],
      "stateMutability": "view",
      "type": "function"
    },
    {
      "inputs": [
        {
          "internalType": "address",
          "name": "owner",
          "type": "address"
        },
        {
          "internalType": "uint256",
          "name": "index",
          "type": "uint256"
        }
      ],
      "name": "tokenOfOwnerByIndex",
      "outputs": [
        {
          "internalType": "uint256",
          "name": "",
          "type": "uint256"
        }
      ],
      "stateMutability": "view",
      "type": "function"
    },
    {
      "inputs": [
        {
          "internalType": "uint256",
          "name": "tokenId",
          "type": "uint256"
        }
      ],
      "name": "tokenURI",
      "outputs": [
        {
          "internalType": "string",
          "name": "",
          "type": "string"
        }
      ],
      "stateMutability": "view",
      "type": "function"
    },
    {
      "inputs": [],
      "name": "totalSupply",
      "outputs": [
        {
          "internalType": "uint256",
          "name": "",
          "type": "uint256"
        }
      ],
      "stateMutability": "view",
      "type": "function"
    },
    {
      "inputs": [
        {
          "internalType": "address",
          "name": "from",
          "type": "address"
        },
        {
          "internalType": "address",
          "name": "to",
          "type": "address"
        },
        {
          "internalType": "uint256",
          "name": "tokenId",
          "type": "uint256"
        }
      ],
      "name": "transferFrom",
      "outputs": [],
      "stateMutability": "nonpayable",
      "type": "function"
    },
    {
      "inputs": [
        {
          "internalType": "address",
          "name": "newOwner",
          "type": "address"
        }
      ],
      "name": "transferOwnership",
      "outputs": [],
      "stateMutability": "nonpayable",
      "type": "function"
    }
  ],
  "bytecode": "0x6080604052610404600a60146101000a81548161ffff021916908361ffff160217905550610100600a60166101000a81548161ffff021916908361ffff1602179055503480156200004f57600080fd5b506040518060400160405280600681526020017f4b5f6e696e6500000000000000000000000000000000000000000000000000008152506040518060400160405280600281526020017f6b390000000000000000000000000000000000000000000000000000000000008152508160009080519060200190620000d4929190620001e4565b508060019080519060200190620000ed929190620001e4565b50505062000110620001046200011660201b60201c565b6200011e60201b60201c565b620002f9565b600033905090565b6000600a60009054906101000a900473ffffffffffffffffffffffffffffffffffffffff16905081600a60006101000a81548173ffffffffffffffffffffffffffffffffffffffff021916908373ffffffffffffffffffffffffffffffffffffffff1602179055508173ffffffffffffffffffffffffffffffffffffffff168173ffffffffffffffffffffffffffffffffffffffff167f8be0079c531659141344cd1fd0a4f28419497f9722a3daafe3b4186f6b6457e060405160405180910390a35050565b828054620001f29062000294565b90600052602060002090601f01602090048101928262000216576000855562000262565b82601f106200023157805160ff191683800117855562000262565b8280016001018555821562000262579182015b828111156200026157825182559160200191906001019062000244565b5b50905062000271919062000275565b5090565b5b808211156200029057600081600090555060010162000276565b5090565b60006002820490506001821680620002ad57607f821691505b60208210811415620002c457620002c3620002ca565b5b50919050565b7f4e487b7100000000000000000000000000000000000000000000000000000000600052602260045260246000fd5b61314d80620003096000396000f3fe608060405234801561001057600080fd5b506004361061012c5760003560e01c806370a08231116100ad578063a22cb46511610071578063a22cb46514610343578063b88d4fde1461035f578063c87b56dd1461037b578063e985e9c5146103ab578063f2fde38b146103db5761012c565b806370a08231146102b1578063715018a6146102e15780638da5cb5b146102eb578063947319791461030957806395d89b41146103255761012c565b806323b872dd116100f457806323b872dd146101e95780632f745c591461020557806342842e0e146102355780634f6ccce7146102515780636352211e146102815761012c565b806301ffc9a71461013157806306fdde0314610161578063081812fc1461017f578063095ea7b3146101af57806318160ddd146101cb575b600080fd5b61014b600480360381019061014691906121b7565b6103f7565b60405161015891906125e6565b60405180910390f35b610169610409565b6040516101769190612601565b60405180910390f35b61019960048036038101906101949190612232565b61049b565b6040516101a6919061257f565b60405180910390f35b6101c960048036038101906101c4919061217b565b610520565b005b6101d3610638565b6040516101e09190612823565b60405180910390f35b61020360048036038101906101fe9190612075565b610645565b005b61021f600480360381019061021a919061217b565b6106a5565b60405161022c9190612823565b60405180910390f35b61024f600480360381019061024a9190612075565b61074a565b005b61026b60048036038101906102669190612232565b61076a565b6040516102789190612823565b60405180910390f35b61029b60048036038101906102969190612232565b610801565b6040516102a8919061257f565b60405180910390f35b6102cb60048036038101906102c69190612010565b6108b3565b6040516102d89190612823565b60405180910390f35b6102e961096b565b005b6102f36109f3565b604051610300919061257f565b60405180910390f35b610323600480360381019061031e9190612209565b610a1d565b005b61032d610b02565b60405161033a9190612601565b60405180910390f35b61035d6004803603810190610358919061213f565b610b94565b005b610379600480360381019061037491906120c4565b610baa565b005b61039560048036038101906103909190612232565b610c0c565b6040516103a29190612601565b60405180910390f35b6103c560048036038101906103c09190612039565b610cb3565b6040516103d291906125e6565b60405180910390f35b6103f560048036038101906103f09190612010565b610d47565b005b600061040282610e3f565b9050919050565b60606000805461041890612a56565b80601f016020809104026020016040519081016040528092919081815260200182805461044490612a56565b80156104915780601f1061046657610100808354040283529160200191610491565b820191906000526020600020905b81548152906001019060200180831161047457829003601f168201915b5050505050905090565b60006104a682610eb9565b6104e5576040517f08c379a00000000000000000000000000000000000000000000000000000000081526004016104dc90612763565b60405180910390fd5b6004600083815260200190815260200160002060009054906101000a900473ffffffffffffffffffffffffffffffffffffffff169050919050565b600061052b82610801565b90508073ffffffffffffffffffffffffffffffffffffffff168373ffffffffffffffffffffffffffffffffffffffff16141561059c576040517f08c379a0000000000000000000000000000000000000000000000000000000008152600401610593906127c3565b60405180910390fd5b8073ffffffffffffffffffffffffffffffffffffffff166105bb610f25565b73ffffffffffffffffffffffffffffffffffffffff1614806105ea57506105e9816105e4610f25565b610cb3565b5b610629576040517f08c379a000000000000000000000000000000000000000000000000000000000815260040161062090612703565b60405180910390fd5b6106338383610f2d565b505050565b6000600880549050905090565b610656610650610f25565b82610fe6565b610695576040517f08c379a000000000000000000000000000000000000000000000000000000000815260040161068c906127e3565b60405180910390fd5b6106a08383836110c4565b505050565b60006106b0836108b3565b82106106f1576040517f08c379a00000000000000000000000000000000000000000000000000000000081526004016106e890612623565b60405180910390fd5b600660008473ffffffffffffffffffffffffffffffffffffffff1673ffffffffffffffffffffffffffffffffffffffff168152602001908152602001600020600083815260200190815260200160002054905092915050565b61076583838360405180602001604052806000815250610baa565b505050565b6000610774610638565b82106107b5576040517f08c379a00000000000000000000000000000000000000000000000000000000081526004016107ac90612803565b60405180910390fd5b600882815481106107ef577f4e487b7100000000000000000000000000000000000000000000000000000000600052603260045260246000fd5b90600052602060002001549050919050565b6000806002600084815260200190815260200160002060009054906101000a900473ffffffffffffffffffffffffffffffffffffffff169050600073ffffffffffffffffffffffffffffffffffffffff168173ffffffffffffffffffffffffffffffffffffffff1614156108aa576040517f08c379a00000000000000000000000000000000000000000000000000000000081526004016108a190612743565b60405180910390fd5b80915050919050565b60008073ffffffffffffffffffffffffffffffffffffffff168273ffffffffffffffffffffffffffffffffffffffff161415610924576040517f08c379a000000000000000000000000000000000000000000000000000000000815260040161091b90612723565b60405180910390fd5b600360008373ffffffffffffffffffffffffffffffffffffffff1673ffffffffffffffffffffffffffffffffffffffff168152602001908152602001600020549050919050565b610973610f25565b73ffffffffffffffffffffffffffffffffffffffff166109916109f3565b73ffffffffffffffffffffffffffffffffffffffff16146109e7576040517f08c379a00000000000000000000000000000000000000000000000000000000081526004016109de90612783565b60405180910390fd5b6109f1600061132b565b565b6000600a60009054906101000a900473ffffffffffffffffffffffffffffffffffffffff16905090565b610a25610f25565b73ffffffffffffffffffffffffffffffffffffffff16610a436109f3565b73ffffffffffffffffffffffffffffffffffffffff1614610a99576040517f08c379a0000000000000000000000000000000000000000000000000000000008152600401610a9090612783565b60405180910390fd5b600a60169054906101000a900461ffff1661ffff168161ffff1611610abd57600080fd5b600a60149054906101000a900461ffff1661ffff168161ffff161115610ae257600080fd5b80600a60166101000a81548161ffff021916908361ffff16021790555050565b606060018054610b1190612a56565b80601f0160208091040260200160405190810160405280929190818152602001828054610b3d90612a56565b8015610b8a5780601f10610b5f57610100808354040283529160200191610b8a565b820191906000526020600020905b815481529060010190602001808311610b6d57829003601f168201915b5050505050905090565b610ba6610b9f610f25565b83836113f1565b5050565b610bbb610bb5610f25565b83610fe6565b610bfa576040517f08c379a0000000000000000000000000000000000000000000000000000000008152600401610bf1906127e3565b60405180910390fd5b610c068484848461155e565b50505050565b6060610c1782610eb9565b610c56576040517f08c379a0000000000000000000000000000000000000000000000000000000008152600401610c4d906127a3565b60405180910390fd5b6000610c606115ba565b90506000815111610c805760405180602001604052806000815250610cab565b80610c8a846115d1565b604051602001610c9b92919061255b565b6040516020818303038152906040525b915050919050565b6000600560008473ffffffffffffffffffffffffffffffffffffffff1673ffffffffffffffffffffffffffffffffffffffff16815260200190815260200160002060008373ffffffffffffffffffffffffffffffffffffffff1673ffffffffffffffffffffffffffffffffffffffff16815260200190815260200160002060009054906101000a900460ff16905092915050565b610d4f610f25565b73ffffffffffffffffffffffffffffffffffffffff16610d6d6109f3565b73ffffffffffffffffffffffffffffffffffffffff1614610dc3576040517f08c379a0000000000000000000000000000000000000000000000000000000008152600401610dba90612783565b60405180910390fd5b600073ffffffffffffffffffffffffffffffffffffffff168173ffffffffffffffffffffffffffffffffffffffff161415610e33576040517f08c379a0000000000000000000000000000000000000000000000000000000008152600401610e2a90612663565b60405180910390fd5b610e3c8161132b565b50565b60007f780e9d63000000000000000000000000000000000000000000000000000000007bffffffffffffffffffffffffffffffffffffffffffffffffffffffff1916827bffffffffffffffffffffffffffffffffffffffffffffffffffffffff19161480610eb25750610eb18261177e565b5b9050919050565b60008073ffffffffffffffffffffffffffffffffffffffff166002600084815260200190815260200160002060009054906101000a900473ffffffffffffffffffffffffffffffffffffffff1673ffffffffffffffffffffffffffffffffffffffff1614159050919050565b600033905090565b816004600083815260200190815260200160002060006101000a81548173ffffffffffffffffffffffffffffffffffffffff021916908373ffffffffffffffffffffffffffffffffffffffff160217905550808273ffffffffffffffffffffffffffffffffffffffff16610fa083610801565b73ffffffffffffffffffffffffffffffffffffffff167f8c5be1e5ebec7d5bd14f71427d1e84f3dd0314c0f7b2291e5b200ac8c7c3b92560405160405180910390a45050565b6000610ff182610eb9565b611030576040517f08c379a0000000000000000000000000000000000000000000000000000000008152600401611027906126e3565b60405180910390fd5b600061103b83610801565b90508073ffffffffffffffffffffffffffffffffffffffff168473ffffffffffffffffffffffffffffffffffffffff16148061107d575061107c8185610cb3565b5b806110bb57508373ffffffffffffffffffffffffffffffffffffffff166110a38461049b565b73ffffffffffffffffffffffffffffffffffffffff16145b91505092915050565b8273ffffffffffffffffffffffffffffffffffffffff166110e482610801565b73ffffffffffffffffffffffffffffffffffffffff161461113a576040517f08c379a000000000000000000000000000000000000000000000000000000000815260040161113190612683565b60405180910390fd5b600073ffffffffffffffffffffffffffffffffffffffff168273ffffffffffffffffffffffffffffffffffffffff1614156111aa576040517f08c379a00000000000000000000000000000000000000000000000000000000081526004016111a1906126a3565b60405180910390fd5b6111b5838383611860565b6111c0600082610f2d565b6001600360008573ffffffffffffffffffffffffffffffffffffffff1673ffffffffffffffffffffffffffffffffffffffff1681526020019081526020016000206000828254611210919061295e565b925050819055506001600360008473ffffffffffffffffffffffffffffffffffffffff1673ffffffffffffffffffffffffffffffffffffffff168152602001908152602001600020600082825461126791906128d7565b92505081905550816002600083815260200190815260200160002060006101000a81548173ffffffffffffffffffffffffffffffffffffffff021916908373ffffffffffffffffffffffffffffffffffffffff160217905550808273ffffffffffffffffffffffffffffffffffffffff168473ffffffffffffffffffffffffffffffffffffffff167fddf252ad1be2c89b69c2b068fc378daa952ba7f163c4a11628f55a4df523b3ef60405160405180910390a4611326838383611870565b505050565b6000600a60009054906101000a900473ffffffffffffffffffffffffffffffffffffffff16905081600a60006101000a81548173ffffffffffffffffffffffffffffffffffffffff021916908373ffffffffffffffffffffffffffffffffffffffff1602179055508173ffffffffffffffffffffffffffffffffffffffff168173ffffffffffffffffffffffffffffffffffffffff167f8be0079c531659141344cd1fd0a4f28419497f9722a3daafe3b4186f6b6457e060405160405180910390a35050565b8173ffffffffffffffffffffffffffffffffffffffff168373ffffffffffffffffffffffffffffffffffffffff161415611460576040517f08c379a0000000000000000000000000000000000000000000000000000000008152600401611457906126c3565b60405180910390fd5b80600560008573ffffffffffffffffffffffffffffffffffffffff1673ffffffffffffffffffffffffffffffffffffffff16815260200190815260200160002060008473ffffffffffffffffffffffffffffffffffffffff1673ffffffffffffffffffffffffffffffffffffffff16815260200190815260200160002060006101000a81548160ff0219169083151502179055508173ffffffffffffffffffffffffffffffffffffffff168373ffffffffffffffffffffffffffffffffffffffff167f17307eab39ab6107e8899845ad3d59bd9653f200f220920489ca2b5937696c318360405161155191906125e6565b60405180910390a3505050565b6115698484846110c4565b61157584848484611875565b6115b4576040517f08c379a00000000000000000000000000000000000000000000000000000000081526004016115ab90612643565b60405180910390fd5b50505050565b606060405180602001604052806000815250905090565b60606000821415611619576040518060400160405280600181526020017f30000000000000000000000000000000000000000000000000000000000000008152509050611779565b600082905060005b6000821461164b57808061163490612ab9565b915050600a82611644919061292d565b9150611621565b60008167ffffffffffffffff81111561168d577f4e487b7100000000000000000000000000000000000000000000000000000000600052604160045260246000fd5b6040519080825280601f01601f1916602001820160405280156116bf5781602001600182028036833780820191505090505b5090505b60008514611772576001826116d8919061295e565b9150600a856116e79190612b02565b60306116f391906128d7565b60f81b81838151811061172f577f4e487b7100000000000000000000000000000000000000000000000000000000600052603260045260246000fd5b60200101907effffffffffffffffffffffffffffffffffffffffffffffffffffffffffffff1916908160001a905350600a8561176b919061292d565b94506116c3565b8093505050505b919050565b60007f80ac58cd000000000000000000000000000000000000000000000000000000007bffffffffffffffffffffffffffffffffffffffffffffffffffffffff1916827bffffffffffffffffffffffffffffffffffffffffffffffffffffffff1916148061184957507f5b5e139f000000000000000000000000000000000000000000000000000000007bffffffffffffffffffffffffffffffffffffffffffffffffffffffff1916827bffffffffffffffffffffffffffffffffffffffffffffffffffffffff1916145b80611859575061185882611a0c565b5b9050919050565b61186b838383611a76565b505050565b505050565b60006118968473ffffffffffffffffffffffffffffffffffffffff16611b8a565b156119ff578373ffffffffffffffffffffffffffffffffffffffff1663150b7a026118bf610f25565b8786866040518563ffffffff1660e01b81526004016118e1949392919061259a565b602060405180830381600087803b1580156118fb57600080fd5b505af192505050801561192c57506040513d601f19601f8201168201806040525081019061192991906121e0565b60015b6119af573d806000811461195c576040519150601f19603f3d011682016040523d82523d6000602084013e611961565b606091505b506000815114156119a7576040517f08c379a000000000000000000000000000000000000000000000000000000000815260040161199e90612643565b60405180910390fd5b805181602001fd5b63150b7a0260e01b7bffffffffffffffffffffffffffffffffffffffffffffffffffffffff1916817bffffffffffffffffffffffffffffffffffffffffffffffffffffffff191614915050611a04565b600190505b949350505050565b60007f01ffc9a7000000000000000000000000000000000000000000000000000000007bffffffffffffffffffffffffffffffffffffffffffffffffffffffff1916827bffffffffffffffffffffffffffffffffffffffffffffffffffffffff1916149050919050565b611a81838383611bad565b600073ffffffffffffffffffffffffffffffffffffffff168373ffffffffffffffffffffffffffffffffffffffff161415611ac457611abf81611bb2565b611b03565b8173ffffffffffffffffffffffffffffffffffffffff168373ffffffffffffffffffffffffffffffffffffffff1614611b0257611b018382611bfb565b5b5b600073ffffffffffffffffffffffffffffffffffffffff168273ffffffffffffffffffffffffffffffffffffffff161415611b4657611b4181611d68565b611b85565b8273ffffffffffffffffffffffffffffffffffffffff168273ffffffffffffffffffffffffffffffffffffffff1614611b8457611b838282611eab565b5b5b505050565b6000808273ffffffffffffffffffffffffffffffffffffffff163b119050919050565b505050565b6008805490506009600083815260200190815260200160002081905550600881908060018154018082558091505060019003906000526020600020016000909190919091505550565b60006001611c08846108b3565b611c12919061295e565b9050600060076000848152602001908152602001600020549050818114611cf7576000600660008673ffffffffffffffffffffffffffffffffffffffff1673ffffffffffffffffffffffffffffffffffffffff168152602001908152602001600020600084815260200190815260200160002054905080600660008773ffffffffffffffffffffffffffffffffffffffff1673ffffffffffffffffffffffffffffffffffffffff168152602001908152602001600020600084815260200190815260200160002081905550816007600083815260200190815260200160002081905550505b6007600084815260200190815260200160002060009055600660008573ffffffffffffffffffffffffffffffffffffffff1673ffffffffffffffffffffffffffffffffffffffff16815260200190815260200160002060008381526020019081526020016000206000905550505050565b60006001600880549050611d7c919061295e565b9050600060096000848152602001908152602001600020549050600060088381548110611dd2577f4e487b7100000000000000000000000000000000000000000000000000000000600052603260045260246000fd5b906000526020600020015490508060088381548110611e1a577f4e487b7100000000000000000000000000000000000000000000000000000000600052603260045260246000fd5b906000526020600020018190555081600960008381526020019081526020016000208190555060096000858152602001908152602001600020600090556008805480611e8f577f4e487b7100000000000000000000000000000000000000000000000000000000600052603160045260246000fd5b6001900381819060005260206000200160009055905550505050565b6000611eb6836108b3565b905081600660008573ffffffffffffffffffffffffffffffffffffffff1673ffffffffffffffffffffffffffffffffffffffff168152602001908152602001600020600083815260200190815260200160002081905550806007600084815260200190815260200160002081905550505050565b6000611f3d611f3884612863565b61283e565b905082815260208101848484011115611f5557600080fd5b611f60848285612a14565b509392505050565b600081359050611f77816130a4565b92915050565b600081359050611f8c816130bb565b92915050565b600081359050611fa1816130d2565b92915050565b600081519050611fb6816130d2565b92915050565b600082601f830112611fcd57600080fd5b8135611fdd848260208601611f2a565b91505092915050565b600081359050611ff5816130e9565b92915050565b60008135905061200a81613100565b92915050565b60006020828403121561202257600080fd5b600061203084828501611f68565b91505092915050565b6000806040838503121561204c57600080fd5b600061205a85828601611f68565b925050602061206b85828601611f68565b9150509250929050565b60008060006060848603121561208a57600080fd5b600061209886828701611f68565b93505060206120a986828701611f68565b92505060406120ba86828701611ffb565b9150509250925092565b600080600080608085870312156120da57600080fd5b60006120e887828801611f68565b94505060206120f987828801611f68565b935050604061210a87828801611ffb565b925050606085013567ffffffffffffffff81111561212757600080fd5b61213387828801611fbc565b91505092959194509250565b6000806040838503121561215257600080fd5b600061216085828601611f68565b925050602061217185828601611f7d565b9150509250929050565b6000806040838503121561218e57600080fd5b600061219c85828601611f68565b92505060206121ad85828601611ffb565b9150509250929050565b6000602082840312156121c957600080fd5b60006121d784828501611f92565b91505092915050565b6000602082840312156121f257600080fd5b600061220084828501611fa7565b91505092915050565b60006020828403121561221b57600080fd5b600061222984828501611fe6565b91505092915050565b60006020828403121561224457600080fd5b600061225284828501611ffb565b91505092915050565b61226481612992565b82525050565b612273816129a4565b82525050565b600061228482612894565b61228e81856128aa565b935061229e818560208601612a23565b6122a781612bef565b840191505092915050565b60006122bd8261289f565b6122c781856128bb565b93506122d7818560208601612a23565b6122e081612bef565b840191505092915050565b60006122f68261289f565b61230081856128cc565b9350612310818560208601612a23565b80840191505092915050565b6000612329602b836128bb565b915061233482612c00565b604082019050919050565b600061234c6032836128bb565b915061235782612c4f565b604082019050919050565b600061236f6026836128bb565b915061237a82612c9e565b604082019050919050565b60006123926025836128bb565b915061239d82612ced565b604082019050919050565b60006123b56024836128bb565b91506123c082612d3c565b604082019050919050565b60006123d86019836128bb565b91506123e382612d8b565b602082019050919050565b60006123fb602c836128bb565b915061240682612db4565b604082019050919050565b600061241e6038836128bb565b915061242982612e03565b604082019050919050565b6000612441602a836128bb565b915061244c82612e52565b604082019050919050565b60006124646029836128bb565b915061246f82612ea1565b604082019050919050565b6000612487602c836128bb565b915061249282612ef0565b604082019050919050565b60006124aa6020836128bb565b91506124b582612f3f565b602082019050919050565b60006124cd602f836128bb565b91506124d882612f68565b604082019050919050565b60006124f06021836128bb565b91506124fb82612fb7565b604082019050919050565b60006125136031836128bb565b915061251e82613006565b604082019050919050565b6000612536602c836128bb565b915061254182613055565b604082019050919050565b61255581612a0a565b82525050565b600061256782856122eb565b915061257382846122eb565b91508190509392505050565b6000602082019050612594600083018461225b565b92915050565b60006080820190506125af600083018761225b565b6125bc602083018661225b565b6125c9604083018561254c565b81810360608301526125db8184612279565b905095945050505050565b60006020820190506125fb600083018461226a565b92915050565b6000602082019050818103600083015261261b81846122b2565b905092915050565b6000602082019050818103600083015261263c8161231c565b9050919050565b6000602082019050818103600083015261265c8161233f565b9050919050565b6000602082019050818103600083015261267c81612362565b9050919050565b6000602082019050818103600083015261269c81612385565b9050919050565b600060208201905081810360008301526126bc816123a8565b9050919050565b600060208201905081810360008301526126dc816123cb565b9050919050565b600060208201905081810360008301526126fc816123ee565b9050919050565b6000602082019050818103600083015261271c81612411565b9050919050565b6000602082019050818103600083015261273c81612434565b9050919050565b6000602082019050818103600083015261275c81612457565b9050919050565b6000602082019050818103600083015261277c8161247a565b9050919050565b6000602082019050818103600083015261279c8161249d565b9050919050565b600060208201905081810360008301526127bc816124c0565b9050919050565b600060208201905081810360008301526127dc816124e3565b9050919050565b600060208201905081810360008301526127fc81612506565b9050919050565b6000602082019050818103600083015261281c81612529565b9050919050565b6000602082019050612838600083018461254c565b92915050565b6000612848612859565b90506128548282612a88565b919050565b6000604051905090565b600067ffffffffffffffff82111561287e5761287d612bc0565b5b61288782612bef565b9050602081019050919050565b600081519050919050565b600081519050919050565b600082825260208201905092915050565b600082825260208201905092915050565b600081905092915050565b60006128e282612a0a565b91506128ed83612a0a565b9250827fffffffffffffffffffffffffffffffffffffffffffffffffffffffffffffffff0382111561292257612921612b33565b5b828201905092915050565b600061293882612a0a565b915061294383612a0a565b92508261295357612952612b62565b5b828204905092915050565b600061296982612a0a565b915061297483612a0a565b92508282101561298757612986612b33565b5b828203905092915050565b600061299d826129ea565b9050919050565b60008115159050919050565b60007fffffffff0000000000000000000000000000000000000000000000000000000082169050919050565b600061ffff82169050919050565b600073ffffffffffffffffffffffffffffffffffffffff82169050919050565b6000819050919050565b82818337600083830152505050565b60005b83811015612a41578082015181840152602081019050612a26565b83811115612a50576000848401525b50505050565b60006002820490506001821680612a6e57607f821691505b60208210811415612a8257612a81612b91565b5b50919050565b612a9182612bef565b810181811067ffffffffffffffff82111715612ab057612aaf612bc0565b5b80604052505050565b6000612ac482612a0a565b91507fffffffffffffffffffffffffffffffffffffffffffffffffffffffffffffffff821415612af757612af6612b33565b5b600182019050919050565b6000612b0d82612a0a565b9150612b1883612a0a565b925082612b2857612b27612b62565b5b828206905092915050565b7f4e487b7100000000000000000000000000000000000000000000000000000000600052601160045260246000fd5b7f4e487b7100000000000000000000000000000000000000000000000000000000600052601260045260246000fd5b7f4e487b7100000000000000000000000000000000000000000000000000000000600052602260045260246000fd5b7f4e487b7100000000000000000000000000000000000000000000000000000000600052604160045260246000fd5b6000601f19601f8301169050919050565b7f455243373231456e756d657261626c653a206f776e657220696e646578206f7560008201527f74206f6620626f756e6473000000000000000000000000000000000000000000602082015250565b7f4552433732313a207472616e7366657220746f206e6f6e20455243373231526560008201527f63656976657220696d706c656d656e7465720000000000000000000000000000602082015250565b7f4f776e61626c653a206e6577206f776e657220697320746865207a65726f206160008201527f6464726573730000000000000000000000000000000000000000000000000000602082015250565b7f4552433732313a207472616e736665722066726f6d20696e636f72726563742060008201527f6f776e6572000000000000000000000000000000000000000000000000000000602082015250565b7f4552433732313a207472616e7366657220746f20746865207a65726f2061646460008201527f7265737300000000000000000000000000000000000000000000000000000000602082015250565b7f4552433732313a20617070726f766520746f2063616c6c657200000000000000600082015250565b7f4552433732313a206f70657261746f7220717565727920666f72206e6f6e657860008201527f697374656e7420746f6b656e0000000000000000000000000000000000000000602082015250565b7f4552433732313a20617070726f76652063616c6c6572206973206e6f74206f7760008201527f6e6572206e6f7220617070726f76656420666f7220616c6c0000000000000000602082015250565b7f4552433732313a2062616c616e636520717565727920666f7220746865207a6560008201527f726f206164647265737300000000000000000000000000000000000000000000602082015250565b7f4552433732313a206f776e657220717565727920666f72206e6f6e657869737460008201527f656e7420746f6b656e0000000000000000000000000000000000000000000000602082015250565b7f4552433732313a20617070726f76656420717565727920666f72206e6f6e657860008201527f697374656e7420746f6b656e0000000000000000000000000000000000000000602082015250565b7f4f776e61626c653a2063616c6c6572206973206e6f7420746865206f776e6572600082015250565b7f4552433732314d657461646174613a2055524920717565727920666f72206e6f60008201527f6e6578697374656e7420746f6b656e0000000000000000000000000000000000602082015250565b7f4552433732313a20617070726f76616c20746f2063757272656e74206f776e6560008201527f7200000000000000000000000000000000000000000000000000000000000000602082015250565b7f4552433732313a207472616e736665722063616c6c6572206973206e6f74206f60008201527f776e6572206e6f7220617070726f766564000000000000000000000000000000602082015250565b7f455243373231456e756d657261626c653a20676c6f62616c20696e646578206f60008201527f7574206f6620626f756e64730000000000000000000000000000000000000000602082015250565b6130ad81612992565b81146130b857600080fd5b50565b6130c4816129a4565b81146130cf57600080fd5b50565b6130db816129b0565b81146130e657600080fd5b50565b6130f2816129dc565b81146130fd57600080fd5b50565b61310981612a0a565b811461311457600080fd5b5056fea2646970667358221220388b78385ed10d398314fb393969bd521b80d7b180cf503cfb7180ba7657d14b64736f6c63430008040033",
  "linkReferences": {},
  "deployedLinkReferences": {}
}